:020000040800F2
:10000000E8040020A1010008CB150008AF14000887
:10001000C91500081D060008A91C00080000000002
:10002000000000000000000000000000C9160008E9
:100030001F06000800000000CD150008CB160008C0
:10004000BB010008BB010008BB010008BB010008A0
:10005000BB010008BB010008BB010008BB01000890
:10006000BB010008BB010008BB010008BB01000880
:10007000BB010008BB010008BB010008BB01000870
:10008000BB010008BB010008BB010008BB01000860
:10009000BB010008BB010008BB010008BB01000850
:1000A000BB010008BB010008BB010008BB01000840
:1000B000BB010008BB010008BB010008BB01000830
:1000C000BB010008BB010008BB010008BB01000820
:1000D000BB010008BB0100089D1C0008BB01000813
:1000E000BB010008BB010008BB010008BB01000800
:1000F000BB010008BB010008BB010008BB010008F0
:10010000BB010008BB010008BB010008BB010008DF
:10011000BB010008BB010008BB010008BB010008CF
:10012000BB010008BB010008BB010008BB010008BF
:10013000BB010008BB010008BB010008BB010008AF
:10014000BB010008BB010008BB010008BB0100089F
:10015000BB010008BB010008BB010008BB0100088F
:10016000BB010008BB010008BB010008BB0100087F
:10017000BB010008BB010008BB0100080000000033
:10018000BB010008BB010008DFF810D000F034FA12
:1001900000480047E91C0008AFF30080E804002095
:1001A0000648804706480047FEE7FEE7FEE7FEE711
:1001B000FEE7FEE7FEE7FEE7FEE7FEE76117000861
:1001C000890100082DE9F05F0546002092469B4614
:1001D00088460646814640241BE02846414647465D
:1001E000224600F08AF953465A46C01A914110D36C
:1001F00011461846224600F071F92D1A67EB0108E6
:100200004F4622460120002100F068F917EB000953
:100210004E41201EA4F10104DFDC484631462A4647
:100220004346BDE8F09FD2B201E000F8012B491E21
:10023000FBD270470022F6E710B513460A46044683
:100240001946FFF7F0FF204610BD2DE9FE4F80460E
:1002500081EA0300C00F0C46009021F0004123F01A
:100260000045B8EB0200A94105D240462146904620
:100270001C460B46024623F00040104347D0270D92
:10028000C7F30A00C3F30A510290401A01904028B4
:100290006BDAC3F3130040F4801B0098924620B140
:1002A0000023D2EB030A63EB0B0B01985946C0F114
:1002B0004002504600F012F906460D465046594697
:1002C000019A00F02AF910EB08006141002487EA46
:1002D000115284EAE7731A4340D0009A62B3019A3C
:1002E000012A4FEA075215DC001B61EB02014FF0B7
:1002F000004202EA0752CDE90042001C41F580119C
:1003000032462B4600F02AF903B0BDE8F08F404694
:100310002146F9E7001B61EB0201001C41F5801347
:1003200000185B412018A2F5001747EB030140EAD3
:10033000D570B6196D4111E06D084FEA360645EAF1
:10034000C0754FEA0752001B61EB0201001C41F52A
:10035000801149084FEA30000019514132462B46BE
:1003600003B0BDE8F04F00F0EAB800980122400069
:100370000023D0EB020263EBE073009821464FEAC2
:10038000E074B8EB000061EB0401E9E783F000439F
:100390005BE781F0004158E72DE9FE4F81EA030455
:1003A00004F0004421F0004100944FF0000B23F0D2
:1003B000004350EA01045ED052EA03045BD0C3F369
:1003C0000A54C1F30A552C44A4F2F3340194A0FB5F
:1003D0000254C1F3130141F48011C3F3130343F436
:1003E000801301FB024400FB034E840A970A44EA8F
:1003F000815447EA8357A4FB076802958D0A05FBE1
:1004000007854FEA932C04FB0C542705029D4FEA05
:10041000065847EA1637B5EB08056EEB070C870E52
:10042000920E47EA811742EA8312A7FB0201B6EB5C
:100430000B0164EB00042B0D43EA0C335E1844EB14
:100440001C50DA465146E7FB0201C5F313044FEA9C
:100450000B3343EA14534FEA0432019C43EA060388
:10046000A4F10C040294009CCDE900B400F076F8ED
:1004700003B0BDE8F08F00200146F9E70EB5C10FCB
:1004800080EAE0700844CA07002140F233438DE857
:100490000E000A460B4600F061F803B000BD70B5CF
:1004A000C1F30A5201F000450024C1F3130140F2E8
:1004B000FF3341F480119A4201DA002070BD40F20E
:1004C00033439A42A2F2334203DC524200F015F861
:1004D00000E090402C43F1D0404270BD202A04DB64
:1004E000203A00FA02F1002070479140C2F1200347
:1004F00020FA03F3194390407047202A04DB203A86
:1005000021FA02F00021704721FA02F3D040C2F133
:1005100020029140084319467047202A06DBCB177A
:10052000203A41FA02F043EAE07306E041FA02F3AE
:10053000D040C2F12002914008431946704710B5DF
:10054000141E73F1000408DA401C41F100019218F6
:100550005B411A4301D120F0010010BD2DE9F04D9F
:1005600092469B4611B1B1FA81F202E0B0FA80F2F4
:1005700020329046FFF7B2FF04460F4640EA0A00D9
:1005800041EA0B0153465A46084313D0114653EA39
:10059000010019D0C8F140025046FFF7AEFF0546F2
:1005A0000E46504659464246FFF798FF084305D08D
:1005B000012004E020463946BDE8F08D00200543C7
:1005C00046EAE0762C4337430A986305E40AA0EB39
:1005D00008000022FD0A44EA47540A3002D50020F0
:1005E0000146E9E7010510196941DDE908450019EF
:1005F0006941BDE8F04DA2E7064C074D06E0E06812
:1006000040F0010394E8070098471034AC42F6D359
:10061000FFF7BEFD3C1E00085C1E0008FEE77047A9
:1006200072B6FEE790F83510022903D080214165AB
:1006300001207047052180F835100068016821F01D
:10064000010101600020704770B5044600F0EAF82F
:100650000546601C02D004480078044400F0E2F82B
:10066000401BA042FAD370BD180000202DE9F84FBE
:1006700000224FF0010803254FF00F0E0B6808FA17
:1006800002F42340A3426ED14E68012E05D0022E03
:1006900003D0112E01D0122E12D186684FEA420CDF
:1006A00005FA0CF7BE43CF6807FA0CF737438760AB
:1006B0004668A6430C79C4F3001494403443446064
:1006C000C668570005FA07FC8C6826EA0C06BC4091
:1006D0003443C4604C68022C01D0122C13D1D408CE
:1006E00000EB8404A346D4F8209054074FEAD46A60
:1006F0000EFA0AF629EA06090E6906FA0AF646EA29
:100700000906CBF8206006680C7926EA0C0604F08E
:100710000304BC40344304604C68E40065D5364CA7
:10072000266846F480462660246822F0030604F416
:1007300080440094314C3444A446D4F808489607C9
:10074000370F0EFA07F6B4432D4EB04201D1002602
:1007500024E02C4EB04201D101261FE02A4EB042C7
:1007600002D102261AE040E0284EB04201D1032611
:1007700014E0274EB04201D104260FE0254EB042CE
:1007800001D105260AE0244EB04201D1062605E03B
:10079000224EB04201D1072600E00826BE40264383
:1007A000CCF808681E4E34684F689C43FF0300D5A0
:1007B0001C4334601A4C241D26684F689E43BF03B7
:1007C00000D51E432660164E083634684F689C4399
:1007D000FF0200D51C433460114E0C3634684F685C
:1007E0009C43BF0200D51C433460521C102AFFF406
:1007F00045AFBDE8F88F00004438024000300140AA
:10080000000002400004024000080240000C0240C8
:10081000001002400014024000180240001C024078
:10082000003C01400148806870470000180000202B
:1008300002488168027811448160704718000020E6
:100840000B4810B5016841F400710160016841F482
:1008500080610160016841F480710160032000F053
:100860006FF8002000F006F800F024F8002010BD1A
:10087000003C024070B50D4D04464FF47A71287863
:10088000B1FBF0F00A490968B1FBF0F000F002FB9F
:1008900048B9102C07D200222146501E00F030F833
:1008A00000206C6070BD012070BD000018000020A9
:1008B000240000200A4808B5016841F48041016025
:1008C000006800F4804000900548001F016841F076
:1008D00080510160006800F08050009008BD000069
:1008E00044380240002809DB00F01F02012191403A
:1008F0004009800000F1E020C0F8001170470000BE
:10090000F0B40E4B1B680C46C3F30223C3F107057A
:10091000042D00D90425191D072901D2002300E068
:10092000DB1E012606FA05F1491E214099409E4032
:10093000761E16403143F0BC01F0B7B90CED00E073
:10094000064900F0070208684FF6FF03184040EA26
:100950000220034A10430860704700000CED00E0DD
:100960000000FA052DE9F0470E46050065D0DFF8D6
:100970001481D8F80000F7B200F00F00B04207D29F
:1009800088F80070D8F8000000F00F00B04254D191
:1009900028683D4C810712D5400703D5206840F4F4
:1009A000E05020602878000703D5206840F46040BC
:1009B00020602068A96820F0F000084320602878B3
:1009C000C0072DD0304968680839012812D00228A4
:1009D00013D0032811D00968890700292DDA21686E
:1009E00021F0030101432160FFF71CFF814641F222
:1009F000883A0EE009688903EFE709688901ECE7A6
:100A0000FFF710FFA0EB0901514502D90320BDE813
:100A1000F0872068696800F00C00B0EB810FEFD11F
:100A2000D8F80010404601F00F01B14207D9077015
:100A3000006800F00F00B04201D00120E7E72878FD
:100A4000400705D52068E96820F4E050084320609D
:100A50002878000706D52068296920F4604040EA1C
:100A6000C100206000F038F82168084AC1F3031182
:100A7000515CC8400649086006480068FFF7FAFE66
:100A80000020C4E7003C024008380240241E000851
:100A9000240000201C000020044805490068096863
:100AA000044AC1F38221515CC840704724000020F1
:100AB00008380240341E00080448054900680968E7
:100AC000044AC1F34231515CC84070472400002001
:100AD00008380240341E0008154810B5006810F0B0
:100AE0000C02144813D04110042A0FD0082A0ED14A
:100AF0000F4C241F2268236802F03F025B0207D5D7
:100B00002068C0F38810A0FB010106E0084610BD74
:100B10002168C1F38811A1FB00010023FFF752FBFC
:100B20002168C1F30141491C4900B0FBF1F010BD3F
:100B3000083802400024F4002DE9F84F04006ED07C
:100B40002078DFF83C93C007A9F104054AD009F1E9
:100B500004000168C1F38101012908D00068C0F3D5
:100B6000810002280AD1D9F80000400206D5286881
:100B7000800337D560680028E1D033E06068B0F5C5
:100B8000803F10D0B0F5A02F286810D020F480301E
:100B90002860286820F4802028606068A8B1FFF7EA
:100BA00041FE06460DE0286840F48030F4E740F44A
:100BB00080202860F7E700BFFFF734FE801B642821
:100BC00073D828688003F7D50CE0FFF72BFE0646A4
:100BD00005E000BFFFF726FE801B6428F0D82868D8
:100BE0008003F7D42078DFF89C8280074FF0000A5A
:100BF0003ED5A348001D016811F00C0F08D0006815
:100C0000C0F3810002280BD1D9F80000400207D4BC
:100C10002868800716D5E068012800D112E02BE192
:100C2000E068B8B10120C8F80000FFF7FBFD0646F8
:100C300005E000BFFFF7F6FD801B0228C0D828683A
:100C40008007F7D52868216920F0F80040EAC10044
:100C500028600DE0C8F800A0FFF7E4FD064604E0B8
:100C6000FFF7E0FD801B02281FD828688007F7D413
:100C70002078000722D5824E83486169703671B1B1
:100C800001210160FFF7CEFD074604E0FFF7CAFD32
:100C9000C01B022809D830688007F7D50EE0C0F8DD
:100CA00000A0FFF7BFFD074605E082E0FFF7BAFDB1
:100CB000C01B02287DD830688007F7D42078400711
:100CC00068D5DFF8BCB100270BF13C0BDBF8000066
:100CD000C0000BD4DBF8001041F08051CBF80010BD
:100CE000DBF80000012700F080500090674E30686C
:100CF000C00510D4306840F480703060FFF792FD7A
:100D0000009005E0FFF78EFD0099401A022850D8A8
:100D10003068C005F6D55A4EA0686C3601280FD051
:100D20000528306810D020F001003060306820F0D5
:100D300004003060A068B8B1FFF774FD00900FE0C8
:100D4000306840F00100F4E740F004003060F7E75D
:100D5000FFF768FD0099411A41F28830814266D858
:100D600030688007F4D50EE0FFF75CFD009007E0E7
:100D7000FFF758FD0099411A41F28830814256D858
:100D800030688007F4D42FB1DBF8001021F08051D7
:100D9000CBF80010A069C8B33949091D0968C1F32F
:100DA000810102294AD00228504607D0C8F86000C5
:100DB00000E03CE0FFF736FD04463BE04746C8F85C
:100DC0006000FFF72FFD064605E000BFFFF72AFD94
:100DD000801B02282BD828688001F7D4D4E90701AA
:100DE0000843A16A2A4A490802EB0141626A41EAC2
:100DF0008211084394F82C1040EA0161C9F80010F0
:100E000001203866FFF70EFD044606E036E000BF1D
:100E1000FFF708FD001B022809D828688001F7D5D4
:100E20002CE000BFFFF7FEFC001B022802D90320C4
:100E3000BDE8F88F28688001F4D41FE00128F7D0BE
:100E4000D9F80000E26900F48001914214D1226ACD
:100E500000F03F0191420FD147F6C071626A014034
:100E6000914209D1A26A00F44031914204D1E16A71
:100E700000F07060884201D00120D9E70020D7E758
:100E80000438024000004742800E47420070004094
:100E90000000FFFF10B5401EB0F1807F01D301209C
:100EA00010BD4FF0E02460610F21601700F0FDFEDF
:100EB0000020A06107202061002010BD70B590F8CF
:100EC0003C20012A32D0012480F83C40022280F8E4
:100ED0003D2003685A689D6822F070060A68324314
:100EE0005A60134B02689A4214D0B2F1804F11D06D
:100EF000104B9A420ED0104B9A420BD00F4B9A4295
:100F000008D00F4B9A4205D00E4B9A4202D00E4B9E
:100F10009A4204D1496825F080031943916080F812
:100F20003D40002180F83C10084670BD022070BD95
:100F3000000001400004004000080040000C004098
:100F400000040140004001400018004010B50400BA
:100F500003D094F83D0010B107E0012010BD00203F
:100F600084F83C00204600F00DF8022084F83D0093
:100F7000211D206800F002FC012084F83D000020C3
:100F800010BD000008B50068B0F1804F08D10548D9
:100F9000016841F001010160006800F0010000906B
:100FA00008BD00004038024070B5044690F83C008F
:100FB000012817D0012584F83C50022084F83D0018
:100FC0002068826822F0770222F47F4282600868FB
:100FD000502830D00DDC20284DD005DC98B31028E7
:100FE0003BD148E0022070BD302844D0402834D1A5
:100FF00039E0602828D0702806D0B0F5805F2CD06A
:10100000B0F5005F29D10AE0CB68D1E90121206861
:1010100000F025FC2068816841F0770109E0CB6889
:10102000D1E90121206800F01AFC2068816841F4B0
:101030008041816011E0CA684968206800F0E4FCE2
:101040005021206807E016E0CA684968206800F06F
:10105000ECFC6021206800F00CFC84F83D5000207E
:1010600084F83C0070BDCA684968206800F0CCFC78
:1010700040212068EFE7226801461046EBE70000B8
:1010800010B586B0044614216846FFF7D3F82068EF
:10109000B0F1804F15D10C480021026842F00102E6
:1010A0000260006800F0010005900320009002201B
:1010B000CDE901010120CDE9031069460348FFF79E
:1010C000D5FA06B010BD00003038024000000240E2
:1010D00070B5044690F83C000D4601280DD001265D
:1010E00084F83C60022084F83D0042B1042A18D004
:1010F000082A2AD00C2A4DD139E0022070BD206880
:1011000000F0C0FB2068816941F00801816120681E
:10111000816921F004018161206881692A69114394
:1011200011E0206800F0DEFB2068816941F4006175
:1011300081612068816921F4806181612068816911
:101140002A6941EA0221816124E0206800F000FC64
:101150002068C16941F00801C1612068C16921F0BE
:101160000401C1612068C1692A69114311E0206846
:1011700000F022FC2068C16941F40061C16120686F
:10118000C16921F48061C1612068C1692A6941EAAD
:101190000221C16184F83D60002084F83C0070BDEC
:1011A00010B5040003D094F83D0010B107E0012011
:1011B00010BD002084F83C00204600F00CF802200E
:1011C00084F83D00211D206800F0D8FA012084F841
:1011D0003D00002010BD704710B504460068012294
:1011E00000F030FB0B492068884202D00A4988424F
:1011F00003D1416C41F4004141642068816801F0F1
:101200000701062903D0016841F0010101600020B7
:1012100010BD0000000001400004014070470000C4
:1012200070B5026804461068D168536910F00F0F5A
:1012300052D003F0010501F490762E435FD0C2072F
:1012400005D0CA0503D5E26B42F00102E263420712
:1012500005D5DA0703D0E26B42F00202E2638207AF
:1012600005D5DA0703D0E26B42F00402E26302071D
:1012700007D501F020022A4303D0E26B42F00802B6
:10128000E263E26B002A33D0800604D5880602D5DB
:10129000204600F0F2FB20684069E16BC0F380104B
:1012A000090700D428B3204600F0D9FB2068416923
:1012B00049061AD5416921F040014161606BA0B136
:1012C0001B490165606BFFF7ADF9002810D0606B1A
:1012D000016DBDE870400847830610D58B060ED51A
:1012E0002046BDE8704000F0C8BB2046FFF796FFDF
:1012F00070BD2046FFF792FF0020E06370BD03063B
:1013000006D50B0604D52046BDE8704000F094BC1D
:101310004006F3D54806F1D5D168204621F04001BA
:10132000D160202184F8391000F0C0F870BD0000B1
:101330004F1A000870B5040004D094F83900002555
:1013400010B106E0012070BD84F83850204600F04E
:1013500023F8242084F839002068C16821F4005162
:10136000C160204600F0D4FB2068016921F490415F
:1013700001612068416921F02A0141612068C1684A
:1013800041F40051C160E563202084F8390084F8FD
:101390003A00002070BD000010B586B0044614214C
:1013A0006846FEF747FF17492068884228D116484B
:1013B0000021026842F400320260006800F400304C
:1013C000059011481038026842F00102026000687E
:1013D00000F0010005900C2000900220CDE90101F1
:1013E000032003900720049069460848FFF73EF960
:1013F000002211462620FFF783FA2620FFF772FA13
:1014000006B010BD004400404038024000000240D9
:1014100090F83A30202B22D1F9B1F2B190F838305F
:10142000012B1CD081628285C2850021C1632222EA
:1014300080F83A2080F838100168CA6842F4807257
:10144000CA6001684A6942F001024A610068C168E5
:1014500041F02001C1600020704701207047022048
:10146000704700000E4810B5014644680A78002312
:1014700014B10F2A02D002E00F2A0AD14360094CAE
:1014800041686254491C4160192902D1436000F04F
:101490009FF8BDE81040012201490348FFF7B8BF9B
:1014A0000000002028000020A40000207047FEE774
:1014B000094808B5016841F080010160016801F048
:1014C00080010091016841F001010160006800F0B5
:1014D0000100009008BD00003038024010B58EB009
:1014E00000240794089409940A940B941C216846DC
:1014F0000C94FEF79FFE22484FF080410160472187
:10150000C0E9011440F2E731C0E903148021816190
:10151000FFF71CFD08B1FFF783F84FF480500790E8
:1015200007A91748FFF740FD08B1FFF779F81448FD
:10153000FFF736FE08B1FFF773F80B940BA91048BC
:101540000C94FFF7BBFC08B1FFF76AF86020CDE907
:10155000000402940022694609480494FFF7B8FD8C
:1015600008B1FFF75DF8042269460548FFF7B0FDB2
:1015700008B1FFF755F80248FFF782FD0EB010BD25
:10158000640000200E4810B50C4901600D4941600F
:101590004FF4805181604900C160C91001610C2184
:1015A000416100218161C161FFF7C4FE002803D0C1
:1015B000BDE81040FFF734B810BD00000044004003
:1015C000A4000020A0860100FEE7FEE770470000AF
:1015D0003C48B0F80110C1F30A0200F11A010A8078
:1015E0008278D308C27843EA4213C3F30A034B80DC
:1015F0000379920942EA8303427943EA8223C3F3DF
:101600000A038B805308827943EAC213C3F30A03A7
:10161000CB801309C27943EA0213C3F30A030B8197
:10162000037AD20942EA4303427A43EA4223C3F3EC
:101630000A034B819308827A43EA8213C3F30A03B5
:101640008B81C37A520942EAC302CA818289C2F3FA
:101650000A020A82427BD308827B43EA4213C3F325
:101660000A034B82C37B920942EA8303027C43EA6A
:101670008223C3F30A038B825308427C43EAC213DA
:10168000C3F30A03CB821309827C43EA0213C3F338
:101690000A030B83C37CD20942EA4303027D43EA77
:1016A0004223C3F30A034B839308427D43EA821328
:1016B000C3F30A038B83807D520942EAC000C883CA
:1016C00070470000280000207047FFF7B1B8000005
:1016D00030B593B030216846FEF7ACFD14210CA85C
:1016E000FEF7A8FD1C480025016841F0805101600B
:1016F000006800F0805011901848016841F4804162
:1017000001600068022400F48040119001200090E4
:10171000000401908001CDE9064008AA0420482178
:1017200082E813000B906846FFF706FA08B172B61C
:10173000FEE70CA90F2081E831004FF48050CDE97D
:101740000F0502210CA8FFF70DF9002801D072B691
:10175000FEE713B030BD000040380240007000408A
:101760000548016841F47001016003494FF00060D1
:10177000803908607047000088ED00E0F0B502682D
:10178000254C264D264E274F274B4FF0804CA0422C
:1017900009D0604507D0A84205D0B04203D0B84276
:1017A00001D0984204D122F0700E4A6842EA0E023B
:1017B000A0421BD0604519D0A84217D0B04215D026
:1017C000B84213D0984211D0184DA8420ED0184DEF
:1017D000A8420BD0174DA84208D0174DA84205D0FB
:1017E000164DA84202D0164DA84203D122F44075EE
:1017F000CA682A434D6922F080022A4302608A683F
:10180000C2620A688262A04201D0984201D109698D
:10181000016301214161F0BD00000140000400406E
:1018200000080040000C004000040140004001405E
:10183000004401400048014000180040001C0040E6
:101840000020004010B501F01F030121046A9940F7
:101850008C430462016A9A401143016210BD10B5C5
:10186000846842EA032224F47F440A4322438260CC
:1018700010BD826822F070020A4342F007018160C5
:1018800070470000F0B5026A22F001020262036AAA
:1018900042688469124E24F073050C682C4323F0CF
:1018A00002058B682B430D4DA84201D0B04205D1F3
:1018B00023F00807CB683B4323F00403A84201D080
:1018C000B04205D14D6922F4407215438A692A431A
:1018D00042608461496841630362F0BD00000140D9
:1018E00000040140F0B5026A22F010020262026AAE
:1018F000436884690D6824F4E64444EA05248D684D
:1019000022F0200242EA05120F4D104EA84201D0EB
:10191000B04206D1CF6822F0800242EA071222F0DC
:101920004002A84201D0B04207D14D6923F4406380
:1019300043EA85038D6943EA85034360846149680E
:1019400081630262F0BD000000000140000401401C
:10195000F0B5026A22F480720262026A4368C469C6
:1019600022F4007224F073050C68124E2C438D682B
:1019700042EA05220E4DA84201D0B04206D1CF68FE
:1019800022F4006242EA072222F48062A84201D0D7
:10199000B04207D14D6923F4405343EA05138D69E2
:1019A00043EA05134360C4614968C1630262F0BD44
:1019B000000001400004014030B5026A22F4805268
:1019C0000262046A4268C3690D6823F4E64343EA8D
:1019D00005238D6824F4005444EA0534084DA842D8
:1019E00002D0084DA84204D14D6922F4804242EA57
:1019F00085124260C36149680164046230BD000021
:101A0000000001400004014010B5036A046A24F09C
:101A100001040462846924F0F00444EA021423F00F
:101A20000A020A438461026210BD10B5036A23F002
:101A3000100303628369046A23F4704343EA0232A9
:101A400024F0A00343EA01118261016210BD10B5C8
:101A5000806B0021C185C184FFF7E0FB10BD0168E8
:101A6000CA6822F49072CA6001684A6922F00102D1
:101A70004A61202180F83A10704710B590F83A106A
:101A8000222901D0022010BD8168B1F5805F11D0FC
:101A90000169002901681FD0496801F07F03816A4C
:101AA0004A1C82620B70C18D491E0904090CC18554
:101AB00018D02BE00269816A002A0268526805D0BA
:101AC000D2B20A80816A491C8162ECE7C2F3080243
:101AD0000A80816A891CF7E74A68816A4B1C836225
:101AE0000A70E0E70168CA6822F02002CA60016853
:101AF000CA6822F48072CA6001684A6922F0010251
:101B00004A61202180F83A10FFF7ACFC002010BD9C
:101B10002DE9F041044600680169E26821F4405172
:101B2000114301612169A068E269084361691143B9
:101B300008432168CA6849F20C639A430243CA60A9
:101B400020684169A26921F4407111434161E06953
:101B5000192764253226B0F5004F354A35492068EB
:101B60004FF0000806D0884201D0904236D1FEF7EF
:101B7000A3FF35E0884201D0904202D1FEF79CFFDE
:101B800001E0FEF789FF61684A18A0FB070148EBF6
:101B90000803FEF717FB0146B0FBF5F00201B1FBAD
:101BA000F5F06FF01803584301EB800006EBC0001E
:101BB000B0FBF5F000F0F80002EB4002B1FBF5F0ED
:101BC000584301EB800006EBC000B0FBF5F000F0DD
:101BD0000700216810448860BDE8F081FEF75CFFD3
:101BE00061688B0F8A00A0FB0701FEF7EBFA014644
:101BF000B0FBF5F06FF01802504301EB800006EBEC
:101C00000010B0FBF5F000F0F002B1FBF5F002EBD4
:101C10000012B1FBF5F06FF01803584301EB8000A0
:101C200006EB0010B0FBF5F000F00F00D1E700006C
:101C3000001401400010014090F83910212901D012
:101C4000022070478168B1F5805F016A0BD04A1CA1
:101C50000262026809785160C18C491E0904090CAE
:101C6000C1840ED017E009880268C1F308015160F1
:101C700001690029016A02D0491C0162ECE7891C54
:101C8000FBE70168CA6822F08002CA600068C16888
:101C900041F04001C1600020704700000148FFF79B
:101CA000BFBA0000A4000020FEE70907090E0028C3
:101CB00004DB00F1E02080F80014704700F00F0012
:101CC00000F1E02080F8141D704702E008C8121FE0
:101CD00008C1002AFAD170477047002001E001C115
:101CE000121F002AFBD170472DED088BFEF7A8FDCF
:101CF000FFF7EEFCFFF7DCFBFFF7F0FBFFF742FC22
:101D000001223E493E48FFF783FB00213D48FFF793
:101D100063FA04213B48FFF75FFADFF8ECB09FED70
:101D20003B8B9FED3C9B9FED3DAB344C4FF000084F
:101D3000BBF80410B1F548712161BBF80600A0F5AD
:101D40008060606101D5C4F81080FEF797FB8A4679
:101D50004AEC100B064653EC182B51EC100BFEF717
:101D60001BFB41EC1B0B2069FEF788FB894649EC05
:101D7000100B054653EC192B51EC100BFEF70CFB26
:101D800053EC1B2BFEF761FA53EC1A2BFEF704FB06
:101D9000FEF785FB4AEC106B0746A06053EC182B4E
:101DA00051EC100BFEF7F8FA49EC105B41EC1B0B01
:101DB00053EC192B51EC100BFEF7EEFA53EC1B2BE6
:101DC000FEF7E4FA53EC1A2BFEF7E6FAFEF767FB90
:101DD0000146E060002F01DAC4F80880002901DA2A
:101DE000C4F80C800748A168026851630068E16884
:101DF00081630120FEF728FC9AE700000000002024
:101E0000A400002064000020420000206666666690
:101E10006666E63FCDCCCCCCCCCCF43F00000000D5
:101E20000000E03F00000000000000000102030489
:101E30000607080900000000010203045C1E0008F8
:101E40000000002028000000CA1C0008841E0008B2
:101E500028000020C0040000DA1C00080000000078
:101E60000000000000000000000000000000000072
:101E70000000000001000000100000000000000051
:041E80000024F40046
:040000050800018965
:00000001FF
